:10000000E01F00105D310000DD310000E53100002F
:10001000000000000000000000000000014BFFEFA6
:10002000000000000000000000000000ED310000B2
:100030000000000000000000F5310000055700003E
:10004000E56500001D660000053200000532000075
:1000500005320000053200000532000005320000C4
:100060000532000005320000000000000000000022
:10007000000000000000000005320000556600008E
:10008000053200000532000005320000B53D0000D9
:100090000532000005320000053200000532000084
:1000A0000532000005320000053200000532000074
:1000B0000000000000000000053200000000000009
:1000C0005870000000020010480000005870000046
:1000D00000400020000000004802001084040000DE
:1000E000004000200000000080B588B000AFF8603C
:1000F000B9607A60BB68FB61FB68BB6100237B6110
:100100000AE0FB691A1DFA61BA69111DB96112682A
:100110001A607B6904337B617A697B689A42F0D309
:10012000BD4608B080BDC04680B584B000AF7860E1
:1001300039607B68FB600023BB6007E0FB681A1D29
:10014000FA6000221A60BB680433BB60BA683B687F
:100150009A42F3D3BD4604B080BDC04680B584B09A
:1001600000AF1B4BFB6016E0FB681A1DFA601B68B2
:10017000BB60FB681A1DFA601B687B60FB681A1D78
:10018000FA601B683B60B9687A683B68081C111C00
:100190001A1CFFF7A9FFFA680E4B9A42E4D30FE04E
:1001A000FB681A1DFA601B687B60FB681A1DFA6009
:1001B0001B683B607A683B68101C191CFFF7B4FF92
:1001C000FA68054B9A42EBD303F096FCFEE7C04673
:1001D000C0300000D8300000E830000080B500AF2B
:1001E000FEE7C04680B500AFFEE7C04680B500AF71
:1001F000FEE7C04680B500AFFEE7C04680B500AF61
:10020000FEE7C04680B500AFFEE7C04680B582B0CD
:1002100000AF78607B685B6801221A437B685A6094
:10022000BD4602B080BDC04680B582B000AF7860E8
:1002300039607B683A68DA60BD4602B080BDC0466E
:1002400080B584B000AFF8607A600B23FB180A1CFD
:100250001A700B23FB1800229A56FB680632920094
:100260007968D150BD4604B080BDC04680B582B02B
:1002700000AF78600A1CFB1C1A707B685969FB1C74
:1002800000229A56131C5B009B1801229A40131CF3
:100290000A1C1A437B685A61BD4602B080BDC04645
:1002A00080B582B000AF78600A1CFB1C1A707B68B6
:1002B0005969FB1C00229A56131C5B009B180133E2
:1002C00001229A40131C0A1C1A437B685A61BD46DE
:1002D00002B080BD90B583B000AF78600C1C101CDC
:1002E000191CFB1C221C1A70BB1C021C1A707B1CE4
:1002F0000A1C1A70FB1C1978BB1C1A787B1C187816
:100300007B6849018A18011CD154BD4603B090BDD9
:1003100080B582B000AF7860081C111CFB1C021C69
:100320001A70BB1C0A1C1A70FB1C1978BB1C1A78AB
:100330007B6849018A18D35CDBB25A1E9341DBB259
:10034000181CBD4602B080BD80B582B000AF786099
:10035000081C111CFB1C021C1A70BB1C0A1C1A7006
:10036000FB1C1A78FB1C19787B68802000018446EE
:1003700061448900CB58B91C097801208840011CD0
:10038000C94319407B688020000184466244920082
:10039000D150BD4602B080BD80B582B000AF3B1DDC
:1003A00090221A703B1D04225A703B1D05229A7040
:1003B0008023DA053B1D101C191C032203F0C2FA2E
:1003C000C046BD4602B080BD80B500AFA023DB05AE
:1003D000181C01211322FFF7B7FF1349124A80238B
:1003E000D358124A134080228B500F490E4A8E2355
:1003F0009B00D358A122D2001A438E239B00CA50DF
:100400000B4B0B4A126801210A431A600649064A3F
:100410008D239B00D358102293431A1C8D239B00DD
:10042000CA50BD4680BDC04600800440FFB7FFF300
:100430000080034080B500AF0020002103F05AF98E
:100440000120002103F056F90220002103F052F9A7
:10045000BD4680BD80B500AF0020012103F04AF900
:100460000120002103F046F90220002103F042F9A7
:10047000BD4680BD80B500AF0020002103F03AF9F1
:100480000120012103F036F90220002103F032F9A6
:10049000BD4680BD80B500AF0020002103F02AF9E1
:1004A0000120002103F026F90220012103F022F9A6
:1004B000BD4680BD80B582B000AF021CFB1D1A7026
:1004C000FB1D1B78002B02D1FFF7B4FF13E0FB1DCF
:1004D0001B78012B02D1FFF7BDFF0CE0FB1D1B7841
:1004E000032B02D1FFF7C6FF05E0FB1D1B78022B93
:1004F00001D1FFF7CFFFBD4602B080BD80B500AF90
:10050000A023DB05181C00210C220123FFF7E2FECB
:10051000A023DB05181C00210D220123FFF7DAFEC2
:10052000A023DB05181C00210E220123FFF7D2FEB9
:10053000A023DB05181C00210C22FFF705FFA023D8
:10054000DB05181C00210D22FFF7FEFEA023DB05B2
:10055000181C00210E22FFF7F7FEBD4680BDC046E5
:1005600080B582B000AF021CFB1D1A70A023DA0513
:10057000FB1D1B78101C00211A1CFFF7C9FE031C71
:100580005A1E9341DBB201225340DBB21A1C0123F5
:100590001340DBB2181CBD4602B080BD80B584B0EC
:1005A00000AF78600823FB1800225A700823FB185C
:1005B00090221A700823FB18181C022103F062F81D
:1005C0000C23FB1891221A700C23FB18181C032112
:1005D00003F070F80C23FB185A787B681A707B685C
:1005E00001330C22BA1892781A70BD4604B080BD4F
:1005F00080B584B000AF7860124B124A1268802137
:1006000049040A431A60C0460E4B5B6A002BFBDAB2
:100610000C4A0E23FB18101C05211A1C03F008F9C4
:100620000E23FB181B88DAB27B681A707B680133D3
:100630000E22BA181288120A92B2D2B21A70BD46AD
:1006400004B080BD00C0014080B584B000AF7860C8
:100650000023FB601649164A8023D358802292015A
:10066000134380228B501249114A8E239B00D3588A
:10067000102293431A1C8E239B00CA500D4B00225C
:10068000DA600D4B1A687B68101C191C03F065FAC0
:10069000031C013BBB60BB681B02FB60FB682022A4
:1006A0001343FB60034BFA681A60BD4604B080BD7B
:1006B0000080044000C00140C806001080B500AFB3
:1006C000FFF71CFFFFF768FE024B181CFFF7BCFF8B
:1006D000BD4680BD6018230080B500AF0C490C4AB0
:1006E0008023D35880229200134380228B50094BE1
:1006F00002225A60074B084ADA60064B14229A61BC
:10070000044B044A526903210A435A61BD4680BD25
:100710000080044000400140E02E000080B500AFA2
:10072000124B181C03F0B2F9104B181C03F0D0F94F
:100730000E4B181C9621FFF777FD0C4B181C00215F
:100740000022FFF77DFD094B181C0121FF22FFF756
:1007500077FD064B181C0021FFF788FD034B181C82
:100760000121FFF783FDBD4680BDC04600800140EA
:1007700080B500AF024B181CFFF748FDBD4680BD99
:100780000080014080B582B000AF03F06BF8031C1D
:100790007B60184B181C03F079F9164B181C03F0FA
:1007A00097F9144B181C9621FFF73EFD114B181CAE
:1007B00000210022FFF744FD0E4B181C01210022EE
:1007C000FFF73EFD0B4B181C0221FF22FFF738FDFF
:1007D000084B084A526F03210A435A67054B181CFD
:1007E0000221FFF75DFD034B181CFFF70FFDBD460F
:1007F00002B080BD00C0004080B582B000AF021CD6
:10080000FB1D1A70BB1D0A1C1A70FB1D1B78022BE6
:1008100008D1BB1D1B780A4A101C00211A1CFFF7C7
:100820000FFD0AE0FB1D1A78BB1D1B78054952B26B
:10083000081C111C1A1CFFF703FDBD4602B080BD49
:100840000080014000C0004080B582B000AF021CB3
:10085000FB1D1A70FB1D1B78002B0CD00B4B0B4A99
:10086000126A02210A431A62084B084A526A02219C
:100870000A435A6207E0054B9022D2001A62034BEA
:100880009022D2005A62BD4602B080BD00400440B2
:1008900080B592B000AF3B1C181CFFF7A9FE3B1CB3
:1008A0005B781B0299B23B1C1B789AB24623FB185B
:1008B0000A431A804623FB1800229A5EC2239B003B
:1008C0009A4203DD3B1D7F225A7138E04623FB1814
:1008D00000229A5EBB239B009A4203DD3B1D7D22D2
:1008E0005A712CE04623FB1800229B5E314A93424A
:1008F00003DD3B1D77225A7121E04623FB180022BD
:100900009B5E2D4A934203DD3B1D74225A7116E013
:100910004623FB1800229A5EA9239B009A4203DD1E
:100920003B1D72225A710AE04623FB1800229A5E90
:10093000A9239B009A4202DC3B1D70225A713B1D89
:100940007C221A703B1D00225A703B1D38229A707F
:100950003B1D3922DA703B1D14221A713B1D5E22A9
:100960009A713B1D6D22DA713B1D0C221A723B1DE0
:1009700001225A723B1D06229A728023DA053B1D22
:10098000101C191C0B2202F0DDFF012001F096FE65
:100990003B1D80229A708023DA053B1D101C191C18
:1009A000032202F0CFFF012001F088FEBD4612B005
:1009B00080BDC046D2020000BA02000080B582B0FD
:1009C00000AF3B1D7C221A703B1D00225A703B1D5C
:1009D00008229A708023DA053B1D101C191C032283
:1009E00002F0B0FF012001F069FEBD4602B080BDFB
:1009F00080B582B000AF3B1D7C221A703B1D0022E7
:100A00005A703B1D0C229A708023DA053B1D101C86
:100A1000191C032202F096FF012001F04FFEBD4693
:100A200002B080BD90B595B000AF78603960082302
:100A3000FB187C221A700823FB1800225A70082326
:100A4000FB1802229A708023DA050823FB18101C79
:100A5000191C032202F076FF0823FB1840225A706B
:100A60000023FB640BE0FB6C0233FA6C79688A1894
:100A700011780822BA18D154FB6C0133FB64FA6C6C
:100A80003B689A42EFDB3B6802331C1C8023DA058B
:100A90000823FB18101C191C221C02F053FFBD4632
:100AA00015B090BD80B584B000AF0023BB601FE0DF
:100AB000BB68FB6000237B600FE0FB6801221340F2
:100AC00005D0FB685B080F4A5340FB6002E0FB68FF
:100AD0005B08FB607B6801337B607B68072BECDD88
:100AE000094BBA689200F968D150BB680133BB600A
:100AF000BB68FF2BDCDD054B01221A60BD4604B04C
:100B000080BDC0462083B8ED4802001048060010A2
:100B100080B584B000AFF860B9607A607B689BB242
:100B2000F968BA68081C111C1A1C00F005F8031CAF
:100B3000181CBD4604B080BD80B586B000AFF8601B
:100B4000B960BB1D1A80FB687B61134B1B68002BCF
:100B500001D1FFF7A7FF00233B6112E03B69BA68B0
:100B6000D3181B781A1C7B695340FF221A400B4B89
:100B70009200D2587B691B0A53407B613B69013369
:100B80003B61BB1D1A883B699A42E7DC7B69181CF4
:100B9000BD4606B080BDC0464806001048020010A1
:100BA00080B582B000AF021CFB1D1A70064BFA1D07
:100BB0001278111C1F220A40012191400A1C1A6060
:100BC000BD4602B080BDC04600E100E080B582B005
:100BD00000AF021CFB1D1A70074AFB1D1B78191C75
:100BE0001F230B40012199400B1C191CC0235B00E3
:100BF000D150BD4602B080BD00E100E0B0B582B08A
:100C000000AF021C3960FB1D1A70FB1D1B787F2B87
:100C10002FD92D4CFB1D1B781A1C0F231340083BAA
:100C20009908294AFB1D1B78181C0F230340083B19
:100C30009B0806339B00D3185B68FA1D1278101CC2
:100C400003220240D200101CFF228240D2431A40ED
:100C50003B689B01FF200340F81D0078051C032022
:100C60002840C00083401A438B1D9B00E3185A6044
:100C700026E0164CFB1D1B785BB29B081349FA1D3E
:100C8000127852B29208C03292005258F91D097877
:100C9000081C03210140C900081CFF218140C943F1
:100CA00011403A689201FF200240F81D0078051CAF
:100CB00003202840C00082400A43C0339B001A51E1
:100CC000BD4602B0B0BDC04600ED00E000E100E06E
:100CD00080B582B000AF78607B68013B0C4A9342DC
:100CE00001D9012310E00B4B7A68013A5A600123C5
:100CF0005B42181C0321FFF781FF064B00229A601C
:100D0000044B07221A600023181CBD4602B080BDA8
:100D1000FFFFFF0010E000E080B582B000AF021CD2
:100D2000FB1D1A70034BFA1D12781A60BD4602B003
:100D300080BDC0460080044080B500AF0549054A2B
:100D4000A8235B00D35810221A43A8235B00CA5083
:100D5000BD4680BD0080044080B582B000AF7860A1
:100D60000A1CFB1C1A707B681B68FA1C1278111C89
:100D70000F220A40012191400A1C13405A1E934140
:100D8000DBB2181CBD4602B080BDC04680B582B043
:100D900000AF78600A1CFB1C1A70FB1C1B785BB24E
:100DA00001229A40131C1A1C7B681A60BD4602B0CF
:100DB00080BDC04680B500AF144B181C0021FFF762
:100DC000CBFF031E08D0114B181C0021FFF7DEFFDC
:100DD0000020002102F08EFC0C4B181C0121FFF7B3
:100DE000BBFF031E10D0094B181C0121FFF7CEFFDB
:100DF000064B181C02F06CFE044B9B69002B03D0C1
:100E00000020012102F076FCBD4680BD008001403B
:100E100080B584B000AF72B600F092F80120FFF701
:100E20007BFF62B60E23FB1800221A700023BB6002
:100E30003E4B00221A6000237B600E23FB18181C17
:100E400000F08CFD00F0F0FC0E23FB181B78022B49
:100E500001D100F05DFA364B1B68181C302101F0FF
:100E600099FD334B1B68181C0C2101F07FFDFFF727
:100E700033FC2F4B1B68181C012101F0C5FD2C4BC6
:100E80001B68181C012101F099FD00F09BFA294B09
:100E9000181C0021402202F02BFE254B1968F82374
:100EA0001A01244B081C111C1A1C402301F074FE6B
:100EB0000F23FB181F4A3C21525C1A700F23FB18AA
:100EC0001B78433B132BD4D89A001B4BD3181B68B9
:100ED0009F4600F063FB031CDAB2184B1A70174BE5
:100EE0001B78002B09D00120FFF7E4FA0A2001F05B
:100EF000E5FB0020FFF7DEFA17E0032000F0F4FC2A
:100F000013E00823FA183B1D101C191C00F036F8DA
:100F10000BE000F099FA08E00823FB18181C00F019
:100F20005FF902E000F0F4F9C046A2E7C006001045
:100F3000B406001050060010E46C0000C506001056
:100F400080B584B000AFC8239B017B6080235B0524
:100F5000BB60C0239B01FB6009E0FB681A68BB68AB
:100F60001A60BB680433BB60FB680433FB60FA683B
:100F70007B689A42F1D3BD4604B080BD80B5C8B04D
:100F800000AF78603960914B3D229A5C2023FF339B
:100F9000FB18303A1A702023FF33FB181B78181CFB
:100FA000FFF788FA00F01EFD7423FB18181CFFF7EA
:100FB0001FFB7423FB181978844B3822995474232F
:100FC000FB185978814B39229954804B37229B5C0E
:100FD000452B12D17023FB18181CFFF7DFFA702382
:100FE000FB181978794B3A2299547023FB185978D9
:100FF000764B3B22995400F02FFD744B37229B5CBB
:10100000452B01D000F07AFD704B36229B5C452BBE
:1010100000D0AFE07B681B7801225340DBB2002B8D
:1010200005D0FFF735FC7B6801221A7001E0FFF75D
:10103000DFFC664B35229B5C452B00D087E000230C
:10104000FB6600238C225200BA1813602C23FB1875
:10105000181C0021402202F04BFD0C23FB18181C29
:101060000021202202F044FD7823FB18181C2021C7
:10107000A02202F03DFD564B1B68181C002101F018
:101080009DFC534B1A682C23FB18101C10211A1CB2
:10109000402301F081FD2C23F9187823FA186C23E2
:1010A000FB18081C111C1A1C00F0E2FE484B1B68C0
:1010B000181C012101F082FC464B1B68002B15D146
:1010C0007823FB181033181C1021FFF7ABFC414BA1
:1010D00001221A603B6810221A603F4B3E4A126898
:1010E00001210A431A603C4B01225A603A4B1B68AB
:1010F000012213402AD0FB6E102B27D9364B364ADB
:10110000126801210A431A603B681B681A1CFB6EB7
:1011100010339A4205D23B681B685A1C3B681A6020
:1011200002E03B6800221A603B681B688C22520078
:10113000BA1813607823FA188C235B00FB181B681D
:10114000D318181C1021FFF76DFC15E014E078236C
:10115000FA18224B101C191C102202F0C5FC78232F
:10116000FB180020191C102200F034FE194B00223D
:101170001A6001E0FFF722FC7323FB18181C00F033
:10118000EDFB7323FB181978104B3E229954104B3A
:101190001B68181C002101F037FC0D4B1968F8235F
:1011A0001A010A4B081C111C1A1C402301F0A2FD55
:1011B000074B1A68FA235B00101C09211A1C002334
:1011C00001F0ACFABD4648B080BDC04650060010E4
:1011D000B4060010C006001000400140346D00004D
:1011E00080B584B000AF7860464B1B780122534035
:1011F000DBB2002B04D000F057FB424B01221A70E7
:101200007B681B7801225340DBB2002B05D0FFF72F
:101210003FFB7B6801221A7001E0FFF7E9FB3A4BC4
:101220003B229B5C0220191CFFF7E6FA364B392261
:101230009B5C0120191CFFF7DFFA334B3A229B5CC1
:101240000020191CFFF7D8FA00F0D8FC0F23FB1878
:1012500000221A700F23FB18181C00F07FFB0F23CD
:10126000FB181B78002B2FD00F23FB181B781A1CA0
:101270000123134004D0244B3B22FF21995403E067
:10128000214B3B22002199540F23FB181B781A1C79
:101290000223134004D01C4B3A22FF21995403E04F
:1012A000194B3A22002199540F23FB181B781A1C62
:1012B0000423134004D0144B3922FF21995403E036
:1012C000114B392200219954104B1B68181C002126
:1012D00001F09AFB0D4B1968F8231A010A4B081C00
:1012E000111C1A1C402301F005FD084B1A68FA2353
:1012F0005B00101C09211A1C002301F00FFABD46E7
:1013000004B080BD9006001050060010B406001016
:1013100080B582B000AF0120FFF7CCF8642001F067
:10132000CDF9224B196880239BB2214A081C002169
:1013300001F0E0FCFB1D08221A700FE01B4B19683E
:10134000FB1D1A781B4B081C111C1A1C102301F0E2
:1013500081FEFB1D1A78FB1D01321A70FB1D1B78E4
:10136000372BEBD9114B1A68134B101C38211A1C60
:10137000102301F06FFE0D4B1A68104B101C392121
:101380001A1C102301F066FE084B1A680C4B101C47
:101390003A211A1C102301F05DFE0320FFF78AF8A2
:1013A000642001F08BF9BD4602B080BDB406001088
:1013B000246C0000A46C0000B46C0000C46C00003D
:1013C000D46C000080B582B000AF01F091F9031C2D
:1013D0007B6028E0FB1C00221A701A4B1A68FB1C69
:1013E000101C00211A1C01F051FDFB1C1B781A1C5B
:1013F000402313400BD1134B1B68181C012101F033
:1014000003FB104B1B68181C012101F0D7FA01F0F7
:101410006FF9021C7B68D21AFA239B009A4202D908
:10142000FFF7CCFA0BE0074B1A68FA235B00101C9D
:1014300008211A1C002301F071F9031ECAD1BD4610
:1014400002B080BDB406001080B582B000AF374B4B
:10145000181C0021402202F04BFB00237B607A68BD
:10146000324BD218324B101C191C0C2202F03CFBE0
:101470000C237B607B685A1C7A602E4A11782B4AB9
:10148000D1547B685A1C7A60284A2E21D1547B683B
:101490005A1C7A60284A1178244AD1547B685A1C15
:1014A0007A60224A0A21D1547A68204BD218234B01
:1014B000101C191C0C2202F017FB7B680C337B609C
:1014C0007B685A1C7A60194A3321D1547B685A1CB4
:1014D0007A60164A2E21D1547B685A1C7A60134ACE
:1014E0003521D1547B685A1C7A60104A0A21D154A4
:1014F000134B1B68181C002101F086FA104B196869
:10150000F8231A01094B081C111C1A1C402301F076
:10151000F1FB0B4B1A68FA235B00101C09211A1C03
:10152000002301F0FBF8BD4602B080BD500600105C
:10153000486D0000BC060010C4060010586D000085
:10154000B406001080B500AF1149114A8E239B00EC
:10155000D358032293431A1C8E239B00CA500020A9
:1015600002F076F902F06CF98023DB05094A181CB9
:10157000111C02F0D7F9084B1B68181CFA239900BC
:1015800002F0EBFA031C181CFFF7A2FBBD4680BD5E
:1015900000800440801A0600C806001080B58CB098
:1015A00000AF0023FB629B4B181C0021402202F07D
:1015B0009FFA994B1B68181C012101F0FFF9031CCD
:1015C0001A1C964B1A70954B1B78002B03D0934B2B
:1015D0001B789BB219E1FFF7B5FF01F089F8031CF6
:1015E0003B6201235B42BB6200237B620123FB6100
:1015F000894B1A68FA235B00101C08211A1C01236E
:1016000001F08CF8031E01D0854BFEE0824B196877
:10161000F8231A017F4B081C111C1A1C402301F0EF
:10162000BBFA031C1A1C7D4B1A707C4B1B78002BD9
:1016300001D07B4BE9E0FB6A0133FB62FB6A0122CC
:10164000134001D0002300E00223181CFEF732FFF4
:10165000704A744B101C191C082202F051FA031C2A
:10166000FB61FB69002B0BD0BA6A6A4B101C191C7A
:101670004022FFF74DFA031C7B627B6ABB6208E0E5
:10168000BA6A644B101C191C3C22FFF741FA031C78
:101690007B62FB69002BABD15E4B3F229B5C1A0641
:1016A0005C4B3E215B5C1B041A435A4B3D215B5C47
:1016B0001B021343574A3C21525C1343BB6101F0A8
:1016C00017F8031C7B61544B1B68181C002101F0A8
:1016D0009BF9504B181C0021402202F009FAFB6ACA
:1016E0003B6101F005F8031CFB6001235B42BB6218
:1016F0000023BB607AE03B69DAB2FB6ADBB2D31A43
:10170000DAB2444B1A70FB6A012B34D1414A454B83
:10171000101C191C082202F0E7F9BA6A3D4B101C94
:10172000191C3C22FFF7F4F9031CBB607A6ABB6901
:101730009A4204D0374B3B220121995403E0354BA8
:101740003B2200219954BB68D9B2324B3C229954B8
:10175000BB681B0AD9B22F4B3D229954BB681B0CA6
:10176000D9B22C4B3E229954BB681B0ED9B2294BDF
:101770003F2299540AE0BA6A264B101C191C4022D9
:10178000FFF7C6F9031CBB60BB68BB62224B19683C
:10179000F8231A011F4B081C111C1A1C402301F0CE
:1017A000A9FA031C1A1C1D4B1A701C4B1B78002B2A
:1017B00001D01B4B29E0184B1A68FA235B00101C60
:1017C00009211A1C012300F0A9FF031E01D0144BAC
:1017D0001BE0FB6A0122134001D0002300E002233A
:1017E000181CFEF767FEFB6A013BFB62FB6A002BDD
:1017F00000D080E700F07CFF031C7B607A6ABB6945
:101800009A4201D0064B00E000231BB2181CBD46D3
:101810000CB080BD50060010B4060010C5060010C4
:10182000FFFF0000686D000080B500AF0020FEF7EC
:1018300041FE01F057FFFEF7C7FD00F02DFF01F05C
:10184000CFFD144B144A1A60144B181C01F006FF0C
:1018500001F0F6FF124B1B68181CFA23990002F0E6
:101860007CF9031C181CFFF733FA0A4B1B68002095
:10187000191C01F059F9021C0A4B1A6000200321BF
:101880000022002301F080FCFFF756FAFEF716FF56
:10189000BD4680BD4C060010EFBEADDEA086010047
:1018A000C8060010B406001080B500AFFEF736FF82
:1018B000FEF768FF0120FEF7C7FF1320FFF786F948
:1018C0001320FFF76DF900200021FEF795FF01209E
:1018D0000021FEF791FF02200021FEF78DFFFEF7A9
:1018E00047FFBD4680BDC04680B582B000AF021C38
:1018F000FB1D1A700020FEF7DDFD642000F0DEFE07
:10190000FB1D1B78181CFEF7D5FD642000F0D6FEE9
:101910000020FEF7CFFD642000F0D0FEFB1D1B78F9
:10192000181CFEF7C7FD642000F0C8FE0020FEF77B
:10193000C1FD642000F0C2FEFB1D1B78181CFEF7E1
:10194000B9FD642000F0BAFE0020FEF7B3FD64206C
:1019500000F0B4FEBD4602B080BDC04680B582B086
:1019600000AF78600C20FEF7FBFD031E07D07B68FC
:101970001B7801221343DAB27B681A7006E07B6899
:101980001B7801229343DAB27B681A700D20FEF7B0
:10199000E7FD031E07D07B681B7802221343DAB2EF
:1019A0007B681A7006E07B681B7802229343DAB2E8
:1019B0007B681A700E20FEF7D3FD031E07D07B68EC
:1019C0001B7804221343DAB27B681A7006E07B6846
:1019D0001B7804229343DAB27B681A70BD4602B0CA
:1019E00080BDC04680B582B000AF1A4B39229B5CE7
:1019F000002B2BD03B1C7C221A703B1C00225A70FF
:101A00003B1CC0229A708023DA053B1C101C191C59
:101A1000032201F097FF3B1C40225A700D4B3822E5
:101A20009A5C3B1C9A703B1C2E22DA70094B3922BF
:101A30009A5C3B1C1A713B1C56225A718023DA05B2
:101A40003B1C101C191C062201F07CFFC046BD4641
:101A500002B080BD5006001080B584B000AF3B1CC2
:101A60007C221A703B1C00225A703B1CC5229A70C3
:101A70008023DA053B1C101C191C032201F062FFB5
:101A80003B1C40225A701C4B28229A5C3B1C9A70CB
:101A9000194B29229A5C3B1CDA703B1C2E221A71CE
:101AA000154B2A229A5C3B1C5A713B1C43229A71AB
:101AB0003B1C2022DA71104B2E229A5C3B1C1A72BE
:101AC0000D4B2F229A5C3B1C5A723B1C2E229A72A1
:101AD000094B30229A5C3B1CDA723B1C46221A737B
:101AE0008023DA053B1C101C191C0D2201F02AFF73
:101AF000BD4604B080BDC0465006001080B584B01D
:101B000000AF3B1C7C221A703B1C00225A703B1C0D
:101B1000C5229A708023DA053B1C101C191C032275
:101B200001F010FF3B1C40225A703B1C2D229A7082
:101B30003B1C2D22DA703B1C2E221A713B1C2D22DD
:101B40005A713B1C43229A713B1C2022DA713B1CC8
:101B50002D221A723B1C2D225A723B1C2E229A7285
:101B60003B1C2D22DA723B1C46221A738023DA05B5
:101B70003B1C101C191C0D2201F0E4FEBD4604B0F4
:101B800080BDC04690B587B000AFF860B9607A609C
:101B90001723FB1801221A701EE01723FB181B786D
:101BA000BA68D31AFA68D4187B68181C0A2101F0A5
:101BB000D4FF0B1CDBB23033DBB223707B68181C04
:101BC0000A2101F0CAFF031C7B601723FB181A7857
:101BD0001723FB1801321A701723FB181A78BB68F9
:101BE0009A42DAD91723FB181B78013BFA68D318FD
:101BF00000221A70BD4607B090BDC04680B588B0BF
:101C000000AF0C23FB187C221A700C23FB18002257
:101C10005A700C23FB1880229A708023DA050C235B
:101C2000FB18101C191C032201F08CFE0C23FB185E
:101C300040225A700C23FB1820229A700C23FB18A8
:101C40005222DA700C23FB1820221A710C23FB1885
:101C500020225A710C23FB1820229A710C23FB18A6
:101C60002022DA710C23FB1820221A720C23FB1895
:101C700047225A720C23FB1820229A720C23FB185D
:101C80002022DA720C23FB1820221A730C23FB1873
:101C900020225A730C23FB1820229A730C23FB1862
:101CA0004222DA730C23FB1820221A748023DA05EF
:101CB0000C23FB18101C191C112201F043FE0C23ED
:101CC000FB187C221A700C23FB1800225A700C237C
:101CD000FB18C0229A708023DA050C23FB18101C15
:101CE000191C032201F02EFE394B3B229B5C1A1C6F
:101CF0000823FB18181C0321FFF744FF344B3A223A
:101D00009B5C1A1C3B1D181C0321FFF73BFF304B4B
:101D100039229B5C1A1C3B1C181C0321FFF732FF65
:101D20000C23FB1840225A700823FB181A780C2346
:101D3000FB189A700823FB185A780C23FB18DA70EA
:101D40000823FB189A780C23FB181A710C23FB1834
:101D500020225A710C23FB1820229A710C23FB18A5
:101D60002022DA713B1D1A780C23FB181A723B1DD6
:101D70005A780C23FB185A723B1D9A780C23FB18D7
:101D80009A720C23FB182022DA720C23FB182022F3
:101D90001A730C23FB1820225A733B1C1A780C234D
:101DA000FB189A733B1C5A780C23FB18DA733B1C04
:101DB0009A780C23FB181A748023DA050C23FB187D
:101DC000101C191C112201F0BDFDBD4608B080BDDC
:101DD0005006001090B597B000AFF860B9607A6017
:101DE0001023FB187C221A701023FB1800225A7053
:101DF000FB68002B04D11023FB1880229A7003E0AB
:101E00001023FB18C0229A708023DA051023FB18D8
:101E1000101C191C032201F095FD1023FB187C22D5
:101E20001A701023FB1840225A7000237B650BE0C8
:101E30007B6D0233B9687A6D8A1811781022BA184E
:101E4000D1547B6D01337B657A687B6D9A42EFD804
:101E50007B6802331C1C8023DA051023FB18101C3E
:101E6000191C221C01F06EFDBD4617B090BDC04686
:101E700080B598B000AFF860B9607A60FB68023353
:101E80001A785F23FB1807210A401A705E23FB189B
:101E9000FA6812791A705F23FB181B78012B00D0A7
:101EA0001DE1FB6805331B78542B13D15E23FB180F
:101EB0001B78033BDAB27B681A70BB681033191CBD
:101EC000FB6809331A1C7B681B78081C111C1A1C40
:101ED00001F00AFEFB6805331B78552B3ED1002329
:101EE0007B633823FB18181C00211A2201F000FE26
:101EF000FB68063319783823FA183423FB18081CBA
:101F0000111C1A1C00F0F0F8BB681033191C7B6B15
:101F10003822BA18081C111C1A1C01F0E5FD7B6B55
:101F20001A1C5D23FB181A705D23FB181B781033F5
:101F3000BA68D118FB68DA1D5E23FB181B78013BD9
:101F4000081C111C1A1C01F0CFFD7A6B5E23FB18D4
:101F50001B78013BD318DAB27B681A70FB68053333
:101F60001B78532B00D087E0FB6809331A785C2379
:101F7000FB18033A1A70BB681033191CFB680E3348
:101F80001A1C5C23FB181B78081C111C1A1C01F07E
:101F9000ABFDFB6809331A785B23FB180A321A7011
:101FA0005A23FB185B22BA18127805321A700023E4
:101FB0007B611823FB18181C00211A2201F098FDE0
:101FC0005A23FB181B78FA68D31819781823FA18C3
:101FD0001423FB18081C111C1A1C00F085F85C2344
:101FE000FB181B781133BA68D1187B691822BA180C
:101FF000081C111C1A1C01F077FD5923FB185A22EA
:10200000BA18127801321A705A23FB181B78023B57
:10201000FA68D2185823FB1812781A707B691A1CB8
:102020005723FB181A705C23FB181A785723FB18E8
:102030001B78D3181133BA68D1185923FB181B78B1
:10204000FA68D2185823FB181B78013B081C111C96
:102050001A1C01F049FD5C23FA185723FB1812786B
:102060001B78D318DAB25823FB181B78D318DBB2CD
:10207000013BDAB27B681A70FB6805331B78482B8A
:102080002DD1FB6806331B78732B28D15623FB1800
:10209000FA68927C1A705523FB1814221A70BB68D8
:1020A00010331A1C0F4B101C191C172201F01CFDB9
:1020B000BB682733191C5523FB181B78FA68D21804
:1020C0005623FB181B78081C111C1A1C01F00CFD70
:1020D0005623FB181B781733DAB27B681A70BD469B
:1020E00018B080BD746D000090B585B000AFB960C8
:1020F0007A600F23FB18021C1A700F23FB181B7841
:10210000232B00D932E29A00E84BD3181B689F4674
:102110007B680B221A707B681B781C1CBA68E44B26
:10212000101C191C221C01F0DFFC1FE27B680C2232
:102130001A707B681B781C1CBA68DE4B101C191CBB
:10214000221C01F0D1FC11E27B6807221A707B6827
:102150001B781C1CBA68D84B101C191C221C01F0DF
:10216000C3FC03E27B6808221A707B681B781C1C86
:10217000BA68D24B101C191C221C01F0B5FCF5E109
:102180007B6804221A707B681B781C1CBA68CC4BD5
:10219000101C191C221C01F0A7FCE7E17B68072238
:1021A0001A707B681B781C1CBA68C64B101C191C63
:1021B000221C01F099FCD9E17B681A221A707B6815
:1021C0001B781C1CBA68C04B101C191C221C01F087
:1021D0008BFCCBE17B680A221A707B681B781C1C85
:1021E000BA68BA4B101C191C221C01F07DFCBDE121
:1021F0007B6807221A707B681B781C1CBA68B44B7A
:10220000101C191C221C01F06FFCAFE17B68072237
:102210001A707B681B781C1CBA68AE4B101C191C0A
:10222000221C01F061FCA1E17B6806221A707B6828
:102230001B781C1CBA68A84B101C191C221C01F02E
:1022400053FC93E17B6806221A707B681B781C1C88
:10225000BA68A24B101C191C221C01F045FC85E138
:102260007B6806221A707B681B781C1CBA689C4B22
:10227000101C191C221C01F037FC77E17B68062238
:102280001A707B681B781C1CBA68964B101C191CB2
:10229000221C01F029FC69E17B6805221A707B6829
:1022A0001B781C1CBA68904B101C191C221C01F0D6
:1022B0001BFC5BE17B6809221A707B681B781C1C85
:1022C000BA688A4B101C191C221C01F00DFC4DE150
:1022D0007B6805221A707B681B781C1CBA68844BCB
:1022E000101C191C221C01F0FFFB3FE17B68072238
:1022F0001A707B681B781C1CBA687E4B101C191C5A
:10230000221C01F0F1FB31E17B6804221A707B682A
:102310001B781C1CBA68784B101C191C221C01F07D
:10232000E3FB23E17B6804221A707B681B781C1C8A
:10233000BA68724B101C191C221C01F0D5FB15E168
:102340007B6804221A707B681B781C1CBA686C4B73
:10235000101C191C221C01F0C7FB07E17B68052239
:102360001A707B681B781C1CBA68664B101C191C01
:10237000221C01F0B9FBF9E07B6805221A707B682A
:102380001B781C1CBA68604B101C191C221C01F025
:10239000ABFBEBE07B6808221A707B681B781C1C87
:1023A000BA685A4B101C191C221C01F09DFBDDE081
:1023B0007B680A221A707B681B781C1CBA68544B15
:1023C000101C191C221C01F08FFBCFE07B68092236
:1023D0001A707B681B781C1CBA684E4B101C191CA9
:1023E000221C01F081FBC1E07B680A221A707B6825
:1023F0001B781C1CBA68484B101C191C221C01F0CD
:1024000073FBB3E07B680B221A707B681B781C1C83
:10241000BA68424B101C191C221C01F065FBA5E098
:102420007B6807221A707B681B781C1CBA683C4BBF
:10243000101C191C221C01F057FB97E07B680B2233
:102440001A707B681B781C1CBA68364B101C191C50
:10245000221C01F049FB89E07B680C221A707B6822
:102460001B781C1CBA68304B101C191C221C01F074
:102470003BFB7BE07B680C221A707B681B781C1C82
:10248000BA682A4B101C191C221C01F02DFB6DE0B0
:102490007B680C221A707B681B781C1CBA68244B62
:1024A000101C191C221C01F01FFB5FE0086F0000CC
:1024B0008C6D0000986D0000A86D0000B06D0000EC
:1024C000BC6D0000C46D0000CC6D0000E86D000024
:1024D000F46D0000FC6D0000046E00000C6E000046
:1024E000146E00001C6E0000246E00002C6E0000B4
:1024F000386E0000406E0000486E0000506E000014
:10250000586E0000606E0000686E0000706E000083
:102510007C6E0000886E0000946E0000A06E0000CB
:10252000AC6E0000B46E0000C06E0000D06E000003
:10253000E06E00007B6808221A707B681B781C1C08
:10254000BA680C4B101C191C221C01F0CDFA0DE0CE
:102550007B680B221A707B681B781C1CBA68064BC0
:10256000101C191C221C01F0BFFAC046BD4605B064
:1025700090BDC046F06E0000FC6E0000B0B582B0A9
:1025800000AF021C3960FB1D1A70FB1D1B787F2BEE
:102590002FD92D4CFB1D1B781A1C0F231340083B11
:1025A0009908294AFB1D1B78181C0F230340083B80
:1025B0009B0806339B00D3185B68FA1D1278101C29
:1025C00003220240D200101CFF228240D2431A4054
:1025D0003B689B01FF200340F81D0078051C032089
:1025E0002840C00083401A438B1D9B00E3185A60AB
:1025F00026E0164CFB1D1B785BB29B081349FA1DA5
:10260000127852B29208C03292005258F91D0978DD
:10261000081C03210140C900081CFF218140C94357
:1026200011403A689201FF200240F81D0078051C15
:1026300003202840C00082400A43C0339B001A5147
:10264000BD4602B0B0BDC04600ED00E000E100E0D4
:1026500080B582B000AF78607B68013B0C4A934242
:1026600001D9012310E00B4B7A68013A5A6001232B
:102670005B42181C0321FFF781FF064B00229A6082
:10268000044B07221A600023181CBD4602B080BD0F
:10269000FFFFFF0010E000E080B500AF064B1B68B5
:1026A000181CFA23990001F058FA031C181CFFF7B4
:1026B000CFFFBD4680BDC046C806001080B584B0BF
:1026C00000AF7860084B1A687B68D318FB6003E0A2
:1026D000064B181C01F0C4F9FA68034B1B689A42B8
:1026E000F6D8BD4604B080BD9406001000800340BB
:1026F00080B500AF024B1B68181CBD4680BDC046AC
:102700009406001080B500AF034B1B685A1C024BA7
:102710001A60BD4680BDC0469406001080B588B0E2
:1027200000AFF860081C7A60191C0B23FB18021C10
:102730001A700A23FB180A1C1A701723FB180022B0
:102740001A701F23FB1800221A700023BB610B2391
:10275000FB181B780E2B00D97AE09A00804BD31817
:102760001B689F460A23FB181B78002B05D0FB68CB
:10277000181C002100F00EF96CE06BE00A23FB1836
:102780001B78002B05D0FB68181C102100F002F903
:1027900060E05FE00A23FB181B78002B05D0FB6884
:1027A000181C202100F0F6F854E053E0FA687B682A
:1027B000101C01211A1C00F07FF9031CCBE00A2336
:1027C000FB181B78002B05D0FB68181C002100F0BB
:1027D000CDF83FE03EE00A23FB181B78002B05D024
:1027E000FB68181C042100F0C1F833E032E00A2332
:1027F000FB181B78002B05D0FB68181C082100F083
:10280000B5F827E026E00A23FB181B78002B0AD036
:10281000FB68181C302100F0BDF8FB68181C0C2167
:1028200000F0A4F816E015E01F23FB1801221A702F
:1028300010E01F23FB1808221A700BE01F23FB185F
:1028400010221A7006E01F23FB1880221A7001E084
:10285000012380E00B23FB181B78092B16D89A0064
:10286000404BD3181B689F46FA687B68101C0021F8
:102870001A1C00F021F9031C6DE0FA687B68101C3B
:1028800001211A1C00F018F9031C64E0C046FA6824
:102890001723FB18101C06211A1C00F0F7FA0B2353
:1028A000FB181B780A3B042B54D89A002E4BD318E4
:1028B0001B689F460120FFF701FFFA681723FB18EA
:1028C000101C06211A1C00F0E1FABB690133BB6140
:1028D000BA697B689A4209D21723FB181B781F221A
:1028E000BA1812781340DBB2002BE3D01723FB1881
:1028F0001B781F22BA1812781340DBB25A42534198
:10290000DBB228E00120FFF7D9FEFA681723FB1895
:10291000101C06211A1C00F0B9FABB690133BB6117
:10292000BA697B689A4209D21723FB181B781F22C9
:10293000BA1812781340DBB2002BE3D11723FB182F
:102940001B781F22BA1812781340DBB25A1E93412B
:10295000DBB200E00123181CBD4608B080BDC046B4
:10296000986F0000D46F0000FC6F000080B582B04B
:1029700000AF78600A1CFB1C1A707A68FB1C1B787D
:10298000101C00210C2200F0C7FA031C181CBD46C5
:1029900002B080BD80B582B000AF78600A1CFB1C1D
:1029A0001A707A68FB1C1B78101C0021302200F082
:1029B000B3FA031C181CBD4602B080BD80B584B0BC
:1029C00000AF78600A1CFB1C1A700F23FB18002252
:1029D0001A70FB1C1B78002B04D00F23FB1840221D
:1029E0001A7003E00F23FB1800221A707A680F2375
:1029F000FB181B78101C0021402200F08DFA031CEC
:102A0000181CBD4604B080BD80B584B000AF7860AE
:102A10000A1CFB1C1A700E23FB1800221A800D23BF
:102A2000FB1800221A707A680D23FB18101C002175
:102A30001A1C00F02BFA0D23FB181B781A1C01231B
:102A40001A40FB1C1B789A422BD00D23FB181B78D5
:102A50001A1C4023134017D07B68181C0021FFF775
:102A6000ADFF7A68FB1C1B78101C0021012200F0CE
:102A700053FA031C1A1C0E23FB181A807B68181CBF
:102A80000121FFF79BFF0CE07A68FB1C1B78101CF0
:102A90000021012200F040FA031C1A1C0E23FB182F
:102AA0001A800E23FB1800229B5E5A1E9341DBB254
:102AB000181CBD4604B080BD80B584B000AFF8607E
:102AC0007A600B23FB180A1C1A700B23FB181B7867
:102AD000002B02D0012B11D021E0FB685B7A181C7F
:102AE00002210022002300F04FFBFB685A7A7B682A
:102AF000101C191C00F084FB031C11E0FB685B7ABE
:102B0000181C03210022002300F03EFBFB685A7AC8
:102B10007B68101C191C00F073FB031C00E00123F0
:102B2000181CBD4604B080BD80B582B000AF021C49
:102B30003960FB1D1A70FB1D1B78002B25D1FB1D76
:102B40001A781449131C5B009B181B015B5C052B56
:102B50001BD1FB1D1A780F49131C5B009B181B012E
:102B6000CB183A685A60FB1D1A780A49131C5B009F
:102B70009B181B0100225A54FB1D1A78131C5B0082
:102B80009B181B01034A9B1800E00023181CBD463C
:102B900002B080BD0002001080B588B000AFF860C0
:102BA000081C7A60191C0A23FB18021C1A800823CF
:102BB000FB180A1C1A801E23FB1800221A80FB68CF
:102BC0001B78052B01D1012390E0FB6800221A70CD
:102BD0007EE00A23FB181A881E23FB181B88D318D3
:102BE000002B00DA0F331B111A1C1723FB181A7065
:102BF0000A23FB181B88DAB21E23FB181B88DBB2E2
:102C0000D318DAB21623FB180F210A401A701623C4
:102C1000FB181B781022D11A0823FB181A881E23D0
:102C2000FB181B88D31A0A1E9A4200DD1A1C1523B2
:102C3000FB181A701523FB181B780F2B2CD80023B8
:102C4000BB61FA681723FB181B78101C191C0022A3
:102C5000002300F099F9031E00D042E00023BB617D
:102C600013E01E23FB181A88BB69D3187A68D3189F
:102C70001622BA181178BA698A180132F9688A18C6
:102C8000127F1A70BB690133BB611523FB181A78D8
:102C9000BB699A42E5D810E01E23FB181B887A68AE
:102CA000D218F9681723FB181B78081C191C10236D
:102CB00000F06AF9031E00D013E01523FB181B78FF
:102CC00099B21E23FB181E22BA1812888A181A807D
:102CD0001E23FA180823FB1812881B889A4200D278
:102CE00077E7FB681B785A1E9341DBB2181CBD4680
:102CF00008B080BD80B588B000AFF860081C7A606D
:102D0000191C0A23FB18021C1A800823FB180A1C32
:102D10001A801E23FB1800221A80FB681B78052BE3
:102D200001D10123AEE0FB6800221A709CE00A2367
:102D3000FB181A881E23FB181B88D318002B00DAF7
:102D40000F331B111A1C1723FB181A700A23FB18C8
:102D50001B88DAB21E23FB181B88DBB2D318DAB249
:102D60001623FB180F210A401A701623FB181B7834
:102D70001022D11A0823FB181A881E23FB181B885F
:102D8000D31A0A1E9A4200DD1A1C1523FB181A706A
:102D90001523FB181B780F2B4AD80023BB61FA6858
:102DA0001723FB181B78101C191C0022002300F0AD
:102DB000EBF8031E00D060E01723FB181B78002BF4
:102DC00008D11623FB181B78002B03D0FB681A7A56
:102DD000FB685A770023BB6114E01623FB181A78AE
:102DE000BB69D31801331E22BA181188BA698A1830
:102DF00079688A181178FA68D3180A1C1A77BB699F
:102E00000133BB611523FB181A78BB699A42E4D8D9
:102E1000FB681D331A1CF9681723FB181B78081C64
:102E2000191C102300F016F9031E00D025E010E055
:102E30001E23FB181B887A68D218F9681723FB1821
:102E40001B78081C191C102300F004F9031E00D085
:102E500013E01523FB181B7899B21E23FB181E22C2
:102E6000BA1812888A181A801E23FA180823FB1829
:102E700012881B889A4200D259E7FB681B785A1EB9
:102E80009341DBB2181CBD4608B080BD80B584B04C
:102E900000AFF8607A600B23FB180A1C1A70FB68FD
:102EA000FE22DA72FB680B22BA1812781A73FB68DA
:102EB0001B7ADB18DAB2FB689A72FB680A33181CBB
:102EC000032100F0DFFB031E04D0FB6801221A700F
:102ED00001231CE0FB681B7A5B00DBB21A1C012398
:102EE0001343DBB2DAB2FB681A77FB681C33181C99
:102EF000022100F0DFFB031E04D0FB6802221A70DF
:102F0000012304E0FB685A7F7B681A700023181CB9
:102F1000BD4604B080BDC04690B583B000AF7860B8
:102F20000C1C101C191CFB1C221C1A70BB1C021C44
:102F30001A707B1C0A1C1A707B68FE22DA727B688E
:102F4000FA1C12781A737B68BA1C12785A737B6861
:102F50007A1C12789A737B681B7ADB18DAB27B686A
:102F60009A727B680A33181C052100F08BFB031E44
:102F700004D07B6801221A70012300E00023181C92
:102F8000BD4603B090BDC04680B586B000AFF860C6
:102F9000081C7A60191C0B23FB18021C1A700A23E8
:102FA000FB180A1C1A7000237B61FB680B22BA18FD
:102FB0001278DA72FB681B7ADB18DAB2FB689A7255
:102FC000FB680A33181C022100F05CFB031E04D0CE
:102FD000FB6801221A70012337E0FB681B7A5B0053
:102FE000DBB21A1C01231343DBB2DAB2FB681A7797
:102FF000FB681C33181C112100F05CFB031E04D07D
:10300000FB6802221A7001231FE00A23FA180A2320
:10301000FB181B78D9B2102900D910231370002394
:103020007B610BE07A687B69D3187A690132F968B1
:103030008A18127F1A707B6901337B610A23FB189F
:103040001A787B699A42EDD80023181CBD4606B059
:1030500080BDC04680B588B000AFF860081C7A60BB
:10306000191C0B23FB18021C1A700A23FB180A1CDC
:103070001A701723FB1800221A700323FB61002328
:10308000BB61FB680B22BA181278DA720A23FA18AD
:103090000A23FB181B78D9B2102900D9102313700A
:1030A0000023BB610CE0BB6902337968BA698A18F6
:1030B0001178FA68D3180A1C9A72BB690133BB6194
:1030C0000A23FB181A78BB699A42ECD80A23FB182A
:1030D0001B78BB6108E0BB690233FA68D318002291
:1030E0009A72BB690133BB61BB690F2BF3D9FB68D3
:1030F0001B7ADB18DAB2FB689A72FB680A33181C79
:10310000122100F0BFFA031E04D0FB6801221A70DE
:10311000012335E00B23FB181B78F72B0AD90B236F
:10312000FB181B78FB2B05D8FB681B785A1E9341B4
:10313000DBB225E00520FFF7C1FAFA681723FB1878
:10314000101C06211A1CFFF7A1FE031E00D00CE084
:10315000FB69013BFB61FB69002B06D01723FB18C1
:103160001B781A1C02231340E4D1FB69002B02D107
:10317000FB6803221A70FB681B785A1E9341DBB26E
:10318000181CBD4608B080BD80B586B000AFBA60DF
:103190007B600F23FB18021C1A700E23FB180A1CFD
:1031A0001A700F23FB181A78131C5B009B18DB00A6
:1031B000124A9B187B617B691B68181C00F0F0F9B0
:1031C0007B690E22BA1812781A727B69BA68DA60C3
:1031D0007B697A681A617B6900221A757B691A68B3
:1031E0007B691B7A101C191C00F040F97B691B6875
:1031F000181C00F0E3F9BD4606B080BD3002001097
:1032000080B586B000AF021C3960FB1D1A70FB1D33
:103210001A78131C5B009B18DB001F4A9B187B610C
:10322000FFF766FA031C3B613A693B68D318FB6001
:103230007B691B68181C00F0C1F9184B181C00F0C2
:103240000FFC7B691B68181C00F0AAF9FFF750FA05
:10325000031C3B617B691B7D01225340DBB2002BC9
:1032600003D0FA683B699A42E2D87B691B7D002B48
:103270000CD07B691A687B691B7A101C191C00F042
:10328000F5F87B6900221A75002300E00123181C61
:10329000BD4606B080BDC04630020010008003402D
:1032A00080B582B000AF021CFB1D1A70064BFA1DE0
:1032B0001278111C1F220A40012191400A1C1A6039
:1032C000BD4602B080BDC04600E100E080B582B0DE
:1032D00000AF021CFB1D1A70074AFB1D1B78191C4E
:1032E0001F230B40012199400B1C191C8023D15036
:1032F000BD4602B080BDC04600E100E080B582B0AE
:1033000000AF021CFB1D1A70074AFB1D1B78191C1D
:103310001F230B40012199400B1C191CC0235B008B
:10332000D150BD4602B080BD00E100E080B582B062
:1033300000AF7860081C111CFB1C021C1A70BB1C1F
:103340000A1C1A700949FB1C1A78131C5B009B1895
:10335000DB001A1CBB1C1B78D3181A1C7B685E335D
:103360009B005A50BD4602B080BDC046008004405C
:1033700080B582B000AF021CFB1D1A700749074AD6
:103380008023D358FA1D127801209040021C134369
:1033900080228B50BD4602B080BDC04600800440F4
:1033A00080B582B000AF78607B68172B01D800230E
:1033B00011E07B68172B04D97B68372B01D80123D8
:1033C00009E07B68372B04D97B683F2B01D80223A7
:1033D00001E001235B42181CBD4602B080BDC0461F
:1033E000B0B582B000AF00237B601320FFF7C0FFB1
:1033F00000237B6031E07A68131C5B009B18DB00C4
:10340000194A9B183B603B681B68181C00F0C8F801
:103410003B685B68013315D03B681D683B685B689F
:10342000181CFFF7BDFF031CDCB23B685B68181C6F
:10343000182100F092FB0B1CDBB2281C211C1A1C6B
:10344000FFF774FF3B681A683B681B7A101C191C55
:1034500000F00CF87B6801337B607B68002BCAD0DE
:10346000BD4602B0B0BDC0463002001080B582B08B
:1034700000AF78600A1CFB1C1A70FB1C1B78012B28
:1034800065D002DC002B3ED085E0022B02D0032B5E
:103490001CD080E0414B414A126879680120884085
:1034A000011C0A431A603D4B3C4A5268796801206E
:1034B0008840011C0A435A60384B384A12697968BF
:1034C00001208840011C0A431A6164E0334B334AEF
:1034D0001268796801208840011C0A431A602F4B4A
:1034E0002E4A5268796801208840011C0A435A60BC
:1034F0002A4B2A4A1269796801208840011CC94375
:103500000A401A6147E0254B7A68012191400A1C64
:103510005A62224B214A1268796801208840011CB6
:10352000C9430A401A601D4B1C4A52687968012041
:103530008840011C0A435A60184B184A126979687E
:1035400001208840011CC9430A401A6123E0134B43
:103550007A68012191400A1C5A62104B0F4A126886
:10356000796801208840011CC9430A401A600B4B4E
:103570000A4A5268796801208840011CC9430A4000
:103580005A60064B054A1269796801208840011C7F
:103590000A431A61C046BD4602B080BD00C0044067
:1035A00080B582B000AF78607B68DBB25BB2181C7C
:1035B000FFF78CFEBD4602B080BDC04680B582B02C
:1035C00000AF78607B68DBB25BB2181CFFF796FE39
:1035D0007B68DBB25BB2181CFFF762FEBD4602B02F
:1035E00080BDC04680B582B000AF0B4B7B607B686E
:1035F000DB68002B05D07B68DA687B681B69181CC8
:1036000090477B6801221A757B681B68181CFFF7BE
:10361000C7FFBD4602B080BD3002001080B582B049
:1036200000AF0B4B7B607B68DB68002B05D07B68B1
:10363000DA687B681B69181C90477B6801221A7541
:103640007B681B68181CFFF7ABFFBD4602B080BD4E
:103650004802001080B500AFBD4680BD80B582B085
:1036600000AF7860002000F04DF98023DA057B6818
:10367000101C191C00F056F900231BB2181CBD4683
:1036800002B080BD80B582B000AF78600A1CFB1C20
:103690001A70FB1C1A788023D9057B68081C191C3A
:1036A00000F050F9031C9BB21BB2181CBD4602B0BF
:1036B00080BDC04680B582B000AF78600A1CFB1C9C
:1036C0001A70FB1C1A788023D9057B68081C191C0A
:1036D00000F06EF9031C9BB21BB2181CBD4602B071
:1036E00080BDC04680B500AF00F048F800F00EF88D
:1036F000BD4680BD022806D8034B1A5C0123594001
:10370000A023DB05995470471470000038B5A0243D
:10371000E405201C00F0ECF8802380229B01E15896
:1037200080200A43E2500122E271E1584000014347
:10373000E1502272E158001801430C48E1506272D6
:1037400025580B4929402150E07D4721002806D10A
:103750008020E15800040143E1504621E275202217
:10376000044B1A70044B197038BDC0460420000089
:10377000FFFFF7FFC4060010BC06001038B5802418
:103780008022234D52022B599021134388222B5122
:10379000204B40201C605C60DA60073A1A615A6175
:1037A0009022D2009961DA611A625A6291221A63F8
:1037B0005A639A630222FF321A64553ADC659950C3
:1037C00000F052F980222B59120213432B51F0239F
:1037D000114A5B006B621169E03BFF3B0B431361D5
:1037E000022000F035F80D4A7D3C1369A3431361B4
:1037F00000F026F80A4A0B4B0B4813601B68046064
:10380000DB68446084605B680849984738BDC046FF
:1038100000800440004004400040004000C00340DD
:10382000B8060010F81FFF1F98060010A806001029
:10383000043189000B581B049B0D01201380704735
:1038400008B500F00FF8014B186008BDC80600105D
:103850000022034B18675A6701325A677047C04607
:1038600000800440032100B51D4A83B0136F0B4054
:10387000022B20D0032B10D0012B06D01948184B57
:10388000996F00F06AF903B000BD136C1940F5D0D0
:10389000012923D1144B1868F1E79168126C134089
:1038A00016D0012B1AD11F200F4B08401B68013086
:1038B00001935843E3E71F21536ADA051940120FB9
:1038C0000A4B920001314900D05800F046F9D6E782
:1038D0001F20044B084001305843D0E70020CEE7BA
:1038E00000800440001BB70010700000187000003A
:1038F000802240230249885803438B507047C046BA
:103900000080044080212022054B585802435A5021
:10391000022259689143596059680A435A607047B6
:1039200000800440064B10B5041C186800F015F91F
:1039300042081304801A1B0C80B22361606110BD21
:10394000C80600103C23F0B5802783618A18243311
:1039500003600824F825FF052026914211D0036852
:103960001C42FCD043682B40102B1BD016D9182BBF
:1039700001D0282B14D10B780131836084619142EE
:10398000EDD10021082203681A42FCD080231022C6
:10399000DB051A6008238361081CF0BD082B01D0E9
:1039A0000121EFE7BE610B78013183608461E6E7B6
:1039B000F0B524235F4656464D464446F0B40360B6
:1039C0008023DB059C46042399460433984618332C
:1039D0008B4600250824F8269A46571EAA4213D083
:1039E000AF4220D003681C42FCD043683340402BD8
:1039F0001DD00BD9502B2BD0582B1BD15946836887
:103A00004B550135AA42EBD1002314E0082B01D01D
:103A1000102B0FD16346514699615B465B5D0135C2
:103A200083608461DAE7634649469961DAE7434691
:103A30008361D3E7012380221021D205116008227F
:103A40008261181C3CBC90469946A246AB46F0BD2C
:103A5000594683684B55434601358361BEE7C046EE
:103A60000023036030BF70478E2110B5054C8900DC
:103A70006358054A134002409343E822120213435D
:103A8000635010BD00800440FF0500000C4B9842BD
:103A90000DD00C4B98420DD00B4B98420CD080208F
:103AA0008000802209498B5803438B507047802047
:103AB000C000F6E78020F4E780204000F1E7C04630
:103AC0000080014000C00040000001400080044030
:103AD000002342684360013383600133436083689D
:103AE000002BFCD14260704708B500F070F808BDAB
:103AF00008B500F082F808BD08B5FDF789F908BDE2
:103B0000031C0B4330B59B070FD1032A0DD9046862
:103B10000B689C4209D10D4BE318A3430C4C234284
:103B200003D104300431043AEFE7002494420AD070
:103B3000035D0D5DAB4201D0581B05E00134002B45
:103B4000F4D1181C00E0002030BDC046FFFEFEFE90
:103B50008080808003000B4321D4002931D00122D2
:103B6000D207030901E0090112099942FBD9430870
:103B700001E0490052089942FBD900E04908401A87
:103B800007D35241FAD301461046704749084018FE
:103B9000F7D29218FAD34018014610467047CB0F5F
:103BA00000D04942021000D54042534008B5FFF70B
:103BB000D4FF0CBC521000D34042002A00D5494229
:103BC0001847F446002000F001F86047704784462B
:103BD000830708D18B0706D1131F04D304C904C07F
:103BE000043BFBD21A1D524205D0891A801A8B5C05
:103BF00083540132FBD1604670478446043A09D3AE
:103C0000830707D109060B0A19430B0C1943043A21
:103C100002C0FCD2043203D001700130013AFBD162
:103C200060467047AA00000000000000000000008D
:103C3000E1106D00035F910235537091011454023D
:103C4000656E4E54414720493243204558504C4FF1
:103C500052455251011955016E78702E636F6D2FC8
:103C600064656D6F626F6172642F4F4D3535363903
:103C7000540F13616E64726F69642E636F6D3A70D6
:103C80006B67636F6D2E6E78702E6E74616769322C
:103C90006364656D6FFE000000000000000000001E
:103CA0000000000000000000000000000000000014
:103CB0000000000000000000000000000000000004
:103CC000000000FF00000000FFFFFFFF00000000F9
:103CD000000000000100F84808010000000000009A
:103CE00000000000183F0000723E0000723E00001D
:103CF000723E0000723E0000723E0000723E000004
:103D0000723E0000723E0000023F0000723E000062
:103D1000723E0000723E0000723E0000723E0000E3
:103D2000243F0000D23E0000723E0000723E0000C0
:103D3000123F00004E544147493243204578706C91
:103D40006F72657200000000426F617264205665F8
:103D5000722E3A2000000000465720202020566591
:103D6000722E3A200000000066696E6973685F5326
:103D70000000000048616E646F7665722053656CC8
:103D8000656374205265636F726420006874747098
:103D90003A2F2F7777772E0068747470733A2F2F2D
:103DA0007777772E00000000687474703A2F2F0028
:103DB00068747470733A2F2F0000000074656C3AB9
:103DC000000000006D61696C746F3A006674703AAF
:103DD0002F2F616E6F6E796D6F75733A616E6F6EB6
:103DE000796D6F75734000006674703A2F2F66749A
:103DF000702E0000667470733A2F2F007366747013
:103E00003A2F2F00736D623A2F2F00006E66733ABF
:103E10002F2F00006674703A2F2F00006461763AED
:103E20002F2F00006E6577733A00000074656C6E8A
:103E300065743A2F2F000000696D61703A00000030
:103E4000727473703A2F2F0075726E3A0000000082
:103E5000706F703A000000007369703A0000000053
:103E6000736970733A000000746674703A00000061
:103E700062747370703A2F2F0000000062746C320D
:103E80006361703A2F2F00006274676F65703A2F7C
:103E90002F0000007463706F6265783A2F2F000066
:103EA000697264616F6265783A2F2F0066696C658C
:103EB0003A2F2F0075726E3A6570633A69643A0062
:103EC00075726E3A6570633A7461673A000000007B
:103ED00075726E3A6570633A7061743A0000000062
:103EE00075726E3A6570633A7261773A000000004D
:103EF00075726E3A6570633A0000000075726E3A32
:103F00006570633A726177006C55000010510000D3
:103F10002C51000048510000645100008051000005
:103F20009C510000B8510000D4510000F051000035
:103F30000C52000028520000445200006052000061
:103F40007C52000098520000B4520000D052000091
:103F5000EC520000085300002453000040530000BE
:103F60005C5300007853000094530000B0530000ED
:103F7000CC530000E853000004540000205400001B
:103F80003C54000058540000745400009054000049
:103F9000345500005055000050580000AC57000048
:103FA000BE570000645700007C5700009457000083
:103FB000D6570000EE5700000658000006580000D3
:103FC0004658000028580000285800003C580000BF
:103FD000325800008C5800007A5800007A580000CF
:103FE0006858000068580000685800007A580000BF
:103FF0007A5800007A5800007A580000D058000023
:10400000D058000020590000D0580000205900006E
:10401000001BB7000708090000000000C0270900C6
:1040200090051000C05C1500F0B31A00200B2000B2
:10403000009F2400E0322900C0C62D0050973100B7
:10404000E06735007038390000093D004016400037
:1040500080234300C030460005000000000000003F
:1040600055000000000000000000000000000000FB
:104070000000000000000000000000000000000040
:104080000000000000000000000000002B00000005
:104090000000000000000000000000000000000020
:00000001FF
