:10000000E01F00105D410000DD410000E5410000FF
:10001000000000000000000000000000011BFFEFD6
:10002000000000000000000000000000ED410000A2
:100030000000000000000000F5410000E14B00005E
:1000400049510000815100000542000005420000B6
:100050000542000005420000054200000542000084
:100060000542000005420000000000000000000002
:10007000000000000000000005420000B95100002F
:100080000542000005420000054200000542000054
:100090000542000005420000054200000542000044
:1000A0000542000005420000054200000542000034
:1000B00000000000000000000542000000000000F9
:1000C0000457000000020010480000000457000020
:1000D0000040002000000000480200103C0000002A
:1000E000004000200000000080B588B000AFF8603C
:1000F000B9607A60BB68FB61FB68BB6100237B6110
:100100000AE0FB691A1DFA61BA69111DB96112682A
:100110001A607B6904337B617A697B689A42F0D309
:10012000BD4608B080BDC04680B584B000AF7860E1
:1001300039607B68FB600023BB6007E0FB681A1D29
:10014000FA6000221A60BB680433BB60BA683B687F
:100150009A42F3D3BD4604B080BDC04680B584B09A
:1001600000AF1B4BFB6016E0FB681A1DFA601B68B2
:10017000BB60FB681A1DFA601B687B60FB681A1D78
:10018000FA601B683B60B9687A683B68081C111C00
:100190001A1CFFF7A9FFFA680E4B9A42E4D30FE04E
:1001A000FB681A1DFA601B687B60FB681A1DFA6009
:1001B0001B683B607A683B68101C191CFFF7B4FF92
:1001C000FA68054B9A42EBD301F016FAFEE7C046F7
:1001D000C0400000D8400000E840000080B500AFFB
:1001E000FEE7C04680B500AFFEE7C04680B500AF71
:1001F000FEE7C04680B500AFFEE7C04680B500AF61
:10020000FEE7C04680B500AFFEE7C04690B583B0BC
:1002100000AF78600C1C101C191CFB1C221C1A70EF
:10022000BB1C021C1A707B1C0A1C1A70FB1C197860
:10023000BB1C1A787B1C18787B6849018A18011C42
:10024000D154BD4603B090BD80B582B000AF786098
:10025000081C111CFB1C021C1A70BB1C0A1C1A7007
:10026000FB1C1A78FB1C19787B68802000018446EF
:1002700061448900CB58B91C097801208840011CD1
:10028000C94319407B688020000184466244920083
:10029000D150BD4602B080BD80B582B000AF3B1DDD
:1002A00090221A703B1D04225A703B1D05229A7041
:1002B0008023DA053B1D101C191C032201F0F4F801
:1002C000C046BD4602B080BD80B500AFA023DB05AF
:1002D000181C01211322FFF7B7FF1349124A80238C
:1002E000D358124A134080228B500F490E4A8E2356
:1002F0009B00D358A122D2001A438E239B00CA50E0
:100300000B4B0B4A126801210A431A600649064A40
:100310008D239B00D358102293431A1C8D239B00DE
:10032000CA50BD4680BDC04600800440FFB7FFF301
:100330000080034080B500AF0020002100F08CFF5A
:100340000120002100F088FF0220002100F084FF3E
:10035000BD4680BD80B500AF0020012100F07CFFCC
:100360000120002100F078FF0220002100F074FF3E
:10037000BD4680BD80B500AF0020002100F06CFFBD
:100380000120012100F068FF0220002100F064FF3D
:10039000BD4680BD80B500AF0020002100F05CFFAD
:1003A0000120002100F058FF0220012100F054FF3D
:1003B000BD4680BD80B582B000AF021CFB1D1A7027
:1003C000FB1D1B78002B02D1FFF7B4FF13E0FB1DD0
:1003D0001B78012B02D1FFF7BDFF0CE0FB1D1B7842
:1003E000032B02D1FFF7C6FF05E0FB1D1B78022B94
:1003F00001D1FFF7CFFFBD4602B080BD80B500AF91
:10040000A023DB05181C00210C220123FFF7FEFEB0
:10041000A023DB05181C00210D220123FFF7F6FEA7
:10042000A023DB05181C00210E220123FFF7EEFE9E
:10043000A023DB05181C00210C22FFF705FFA023D9
:10044000DB05181C00210D22FFF7FEFEA023DB05B3
:10045000181C00210E22FFF7F7FEBD4680BDC046E6
:1004600080B584B000AF7860124B124A12688021C8
:1004700049040A431A60C0460E4B5B6A002BFBDA44
:100480000C4A0E23FB18101C05211A1C00F082FFD9
:100490000E23FB181B88DAB27B681A707B68013365
:1004A0000E22BA181288120A92B2D2B21A70BD463F
:1004B00004B080BD00C0014080B584B000AF78605A
:1004C0000023FB601649164A8023D35880229201EC
:1004D000134380228B501249114A8E239B00D3581C
:1004E000102293431A1C8E239B00CA500D4B0022EE
:1004F000DA600D4B1A687B68101C191C01F083F838
:10050000031C013BBB60BB681B02FB60FB68202235
:100510001343FB60034BFA681A60BD4604B080BD0C
:100520000080044000C001408002001080B500AF90
:10053000FFF764FFFFF7B0FE024B181CFFF7BCFF8C
:10054000BD4680BD6018230080B500AF0C490C4A41
:100550008023D35880229200134380228B50094B72
:1005600002225A60074B084ADA60064B14229A614D
:10057000044B044A526903210A435A61BD4680BDB7
:100580000080044000400140E02E000080B592B0A1
:1005900000AF3B1C181CFFF763FF3B1C5B781B0282
:1005A00099B23B1C1B789AB24623FB180A431A8067
:1005B0004623FB1800229A5EC2239B009A4203DD69
:1005C0003B1D7F225A7138E04623FB1800229A5EB9
:1005D000BB239B009A4203DD3B1D7D225A712CE018
:1005E0004623FB1800229B5E314A934203DD3B1DEC
:1005F00077225A7121E04623FB1800229B5E2D4A88
:10060000934203DD3B1D74225A7116E04623FB180A
:1006100000229A5EA9239B009A4203DD3B1D7222B1
:100620005A710AE04623FB1800229A5EA9239B0018
:100630009A4202DC3B1D70225A713B1D7C221A70CB
:100640003B1D00225A703B1D38229A703B1D3922F7
:10065000DA703B1D14221A713B1D5E229A713B1DFC
:100660006D22DA713B1D0C221A723B1D01225A7257
:100670003B1D06229A728023DA053B1D101C191CB3
:100680000B2200F011FF012000F090FA3B1D8022A8
:100690009A708023DA053B1D101C191C032200F000
:1006A00003FF012000F082FABD4612B080BDC046B3
:1006B000D2020000BA02000080B582B000AF3B1D3C
:1006C0007C221A703B1D00225A703B1D08229A7032
:1006D0008023DA053B1D101C191C032200F0E4FEE8
:1006E000012000F063FABD4602B080BDB0B582B013
:1006F00000AF021C3960FB1D1A70FB1D1B787F2B9D
:100700002FD92D4CFB1D1B781A1C0F231340083BBF
:100710009908294AFB1D1B78181C0F230340083B2E
:100720009B0806339B00D3185B68FA1D1278101CD7
:1007300003220240D200101CFF228240D2431A4002
:100740003B689B01FF200340F81D0078051C032037
:100750002840C00083401A438B1D9B00E3185A6059
:1007600026E0164CFB1D1B785BB29B081349FA1D53
:10077000127852B29208C03292005258F91D09788C
:10078000081C03210140C900081CFF218140C94306
:1007900011403A689201FF200240F81D0078051CC4
:1007A00003202840C00082400A43C0339B001A51F6
:1007B000BD4602B0B0BDC04600ED00E000E100E083
:1007C00080B582B000AF78607B68013B0C4A9342F1
:1007D00001D9012310E00B4B7A68013A5A600123DA
:1007E0005B42181C0321FFF781FF064B00229A6031
:1007F000044B07221A600023181CBD4602B080BDBE
:10080000FFFFFF0010E000E080B582B000AF021CE7
:10081000FB1D1A70034BFA1D12781A60BD4602B018
:1008200080BDC0460080044080B500AF0549054A40
:10083000A8235B00D35810221A43A8235B00CA5098
:10084000BD4680BD0080044080B5AAB000AF72B63E
:1008500000F046F80120FFF7D7FF62B6A723FB1888
:1008600000221A7000F05AF8FFF76EFE3A1D1A4B7C
:10087000101C191C102200F0BBFE184B1B68181C22
:10088000002100F0B9F9154B1A68A723FB18101CBA
:1008900006211A1C00F0FCF913E0FFF777FE3B1D60
:1008A0000020191C102200F093F8032000F076F8C5
:1008B0000A4B1A68A723FB18101C06211A1C00F00B
:1008C000E7F9A723FB181B781A1C01231340E4D176
:1008D000FFF7F2FED7E7C046A85600006C020010F2
:1008E00080B584B000AF8423DB017B6080235B058F
:1008F000BB608023DB01FB6009E0FB681A68BB6812
:100900001A60BB680433BB60FB680433FB60FA68A1
:100910007B689A42F1D3BD4604B080BD80B500AF7C
:100920000020FFF747FD00F08FFCFFF7CDFC00F043
:100930002BF900F007FB144B144A1A60144B181CD7
:1009400000F03EFC00F02EFD124B1B68181CFA2331
:10095000990000F058FE031C181CFFF731FF0A4BEA
:100960001B680020191C00F05BF9021C0A4B1A607E
:10097000002003210022002300F008FAFFF754FFB3
:10098000FFF7D4FDBD4680BD48020010EFBEADDECE
:10099000A0860100800200106C02001080B582B0B9
:1009A00000AF021CFB1D1A700320FFF703FDFA23A2
:1009B0005B00181C00F0FAF80020FFF7FBFCFA239C
:1009C0005B00181C00F0F2F8BD4602B080BDC046C6
:1009D00090B597B000AFF860B9607A601023FB184B
:1009E0007C221A701023FB1800225A70FB68002B1F
:1009F00004D11023FB1880229A7003E01023FB1807
:100A0000C0229A708023DA051023FB18101C191CD1
:100A1000032200F049FD1023FB187C221A701023DA
:100A2000FB1840225A7000237B650BE07B6D02337C
:100A3000B9687A6D8A1811781022BA18D1547B6D72
:100A400001337B657A687B6D9A42EFD87B6802330D
:100A50001C1C8023DA051023FB18101C191C221CF7
:100A600000F022FDBD4617B090BDC046B0B582B0C3
:100A700000AF021C3960FB1D1A70FB1D1B787F2B19
:100A80002FD92D4CFB1D1B781A1C0F231340083B3C
:100A90009908294AFB1D1B78181C0F230340083BAB
:100AA0009B0806339B00D3185B68FA1D1278101C54
:100AB00003220240D200101CFF228240D2431A407F
:100AC0003B689B01FF200340F81D0078051C0320B4
:100AD0002840C00083401A438B1D9B00E3185A60D6
:100AE00026E0164CFB1D1B785BB29B081349FA1DD0
:100AF000127852B29208C03292005258F91D097809
:100B0000081C03210140C900081CFF218140C94382
:100B100011403A689201FF200240F81D0078051C40
:100B200003202840C00082400A43C0339B001A5172
:100B3000BD4602B0B0BDC04600ED00E000E100E0FF
:100B400080B582B000AF78607B68013B0C4A93426D
:100B500001D9012310E00B4B7A68013A5A60012356
:100B60005B42181C0321FFF781FF064B00229A60AD
:100B7000044B07221A600023181CBD4602B080BD3A
:100B8000FFFFFF0010E000E080B500AF064B1B68E0
:100B9000181CFA23990000F036FD031C181CFFF7FF
:100BA000CFFFBD4680BDC0468002001080B584B036
:100BB00000AF7860084B1A687B68D318FB6003E0CD
:100BC000064B181C00F0FEFCFA68034B1B689A42A7
:100BD000F6D8BD4604B080BD4C0200100080034032
:100BE00080B500AF034B1B685A1C024B1A60BD4610
:100BF00080BDC0464C02001080B582B000AF786066
:100C00000A1CFB1C1A707A68FB1C1B78101C002144
:100C10000C2200F083F8031C181CBD4602B080BDF6
:100C200080B582B000AF021C3960FB1D1A70FB1D3D
:100C30001B78002B25D1FB1D1A781449131C5B006F
:100C40009B181B015B5C052B1BD1FB1D1A780F4900
:100C5000131C5B009B181B01CB183A685A60FB1DE4
:100C60001A780A49131C5B009B181B0100225A5476
:100C7000FB1D1A78131C5B009B181B01034A9B1871
:100C800000E00023181CBD4602B080BD0002001029
:100C900080B584B000AFF8607A600B23FB180A1CA3
:100CA0001A70FB68FE22DA72FB680B22BA181278FF
:100CB0001A73FB681B7ADB18DAB2FB689A72FB685E
:100CC0000A33181C032100F08FFA031E04D0FB68BE
:100CD00001221A7001231CE0FB681B7A5B00DBB267
:100CE0001A1C01231343DBB2DAB2FB681A77FB68E4
:100CF0001C33181C022100F08FFA031E04D0FB687D
:100D000002221A70012304E0FB685A7F7B681A7084
:100D10000023181CBD4604B080BDC04690B583B00A
:100D200000AF78600C1C101C191CFB1C221C1A70D4
:100D3000BB1C021C1A707B1C0A1C1A707B68FE22EA
:100D4000DA727B68FA1C12781A737B68BA1C127804
:100D50005A737B687A1C12789A737B681B7ADB184B
:100D6000DAB27B689A727B680A33181C052100F09E
:100D70003BFA031E04D07B6801221A70012300E0B5
:100D80000023181CBD4603B090BDC04680B586B098
:100D900000AFBA607B600F23FB18021C1A700E2391
:100DA000FB180A1C1A700F23FB181A78131C5B001F
:100DB0009B18DB00124A9B187B617B691B68181C1F
:100DC00000F0A0F97B690E22BA1812781A727B69BA
:100DD000BA68DA607B697A681A617B6900221A75E1
:100DE0007B691A687B691B7A101C191C00F0F0F8EB
:100DF0007B691B68181C00F093F9BD4606B080BDE6
:100E00003002001080B582B000AF021CFB1D1A70CA
:100E1000064BFA1D1278111C1F220A400121914035
:100E20000A1C1A60BD4602B080BDC04600E100E069
:100E300080B582B000AF021CFB1D1A70074AFB1D73
:100E40001B78191C1F230B40012199400B1C191CF6
:100E50008023D150BD4602B080BDC04600E100E015
:100E600080B582B000AF021CFB1D1A70074AFB1D43
:100E70001B78191C1F230B40012199400B1C191CC6
:100E8000C0235B00D150BD4602B080BD00E100E050
:100E900080B582B000AF7860081C111CFB1C021CDE
:100EA0001A70BB1C0A1C1A700949FB1C1A78131C07
:100EB0005B009B18DB001A1CBB1C1B78D3181A1C88
:100EC0007B685E339B005A50BD4602B080BDC04671
:100ED0000080044080B582B000AF021CFB1D1A7078
:100EE0000749074A8023D358FA1D12780120904001
:100EF000021C134380228B50BD4602B080BDC04609
:100F00000080044080B582B000AF78607B68172B0A
:100F100001D8002311E07B68172B04D97B68372B9D
:100F200001D8012309E07B68372B04D97B683F2B6C
:100F300001D8022301E001235B42181CBD4602B028
:100F400080BDC046B0B582B000AF00237B601320E7
:100F5000FFF7C0FF00237B6031E07A68131C5B0061
:100F60009B18DB00194A9B183B603B681B68181CE8
:100F700000F0C8F83B685B68013315D03B681D681A
:100F80003B685B68181CFFF7BDFF031CDCB23B68C5
:100F90005B68181C182100F036FB0B1CDBB2281C08
:100FA000211C1A1CFFF774FF3B681A683B681B7A08
:100FB000101C191C00F00CF87B6801337B607B6807
:100FC000002BCAD0BD4602B0B0BDC04630020010F2
:100FD00080B582B000AF78600A1CFB1C1A70FB1C45
:100FE0001B78012B65D002DC002B3ED085E0022B64
:100FF00002D0032B1CD080E0414B414A1268796833
:1010000001208840011C0A431A603D4B3C4A52684B
:10101000796801208840011C0A435A60384B384ADD
:101020001269796801208840011C0A431A6164E052
:10103000334B334A1268796801208840011C0A4307
:101040001A602F4B2E4A5268796801208840011C93
:101050000A435A602A4B2A4A12697968012088405B
:10106000011CC9430A401A6147E0254B7A680121F7
:1010700091400A1C5A62224B214A12687968012069
:101080008840011CC9430A401A601D4B1C4A526823
:10109000796801208840011C0A435A60184B184A9D
:1010A0001269796801208840011CC9430A401A610D
:1010B00023E0134B7A68012191400A1C5A62104BBD
:1010C0000F4A1268796801208840011CC9430A4010
:1010D0001A600B4B0A4A5268796801208840011C4B
:1010E000C9430A405A60064B054A126979680120D3
:1010F0008840011C0A431A61C046BD4602B080BD4B
:1011000000C0044080B582B000AF78607B68DBB27D
:101110005BB2181CFFF78CFEBD4602B080BDC04616
:1011200080B582B000AF78607B68DBB25BB2181C20
:10113000FFF796FE7B68DBB25BB2181CFFF762FE1E
:10114000BD4602B080BDC04680B582B000AF0B4B3B
:101150007B607B68DB68002B05D07B68DA687B6886
:101160001B69181C90477B6801221A757B681B68F5
:10117000181CFFF7C7FFBD4602B080BD300200104B
:1011800080B582B000AF0B4B7B607B68DB68002BC7
:1011900005D07B68DA687B681B69181C90477B6800
:1011A00001221A757B681B68181CFFF7ABFFBD4650
:1011B00002B080BD4802001080B500AFBD4680BDC2
:1011C00080B582B000AF7860002000F04DF9802338
:1011D000DA057B68101C191C00F056F900231BB2BD
:1011E000181CBD4602B080BD80B582B000AF7860EB
:1011F0000A1CFB1C1A70FB1C1A788023D9057B681B
:10120000081C191C00F050F9031C9BB21BB2181CDF
:10121000BD4602B080BDC04680B582B000AF7860E8
:101220000A1CFB1C1A70FB1C1A788023D9057B68EA
:10123000081C191C00F06EF9031C9BB21BB2181C91
:10124000BD4602B080BDC04680B500AF00F048F892
:1012500000F00EF8BD4680BD022806D8034B1A5C8C
:1012600001235940A023DB0599547047C056000064
:1012700038B5A024E405201C00F0ECF8802380227F
:101280009B01E15880200A43E2500122E271E158BB
:1012900040000143E1502272E158001801430C481C
:1012A000E150627225580B4929402150E07D4821C8
:1012B000002806D18020E15800040143E150462176
:1012C000E2752022044B1A70044B197038BDC046D9
:1012D00004200000FFFFF7FF7C02001074020010E2
:1012E00038B580248022234D52022B59902113437C
:1012F00088222B51204B40201C605C60DA60073A4A
:101300001A615A619022D2009961DA611A625A62B6
:1013100091221A635A639A630222FF321A64553A81
:10132000DC65995000F052F980222B5912021343C8
:101330002B51F023114A5B006B621169E03BFF3BCC
:101340000B431361022000F035F80D4A7D3C136910
:10135000A343136100F026F80A4A0B4B0B481360B5
:101360001B680460DB68446084605B6808499847D8
:1013700038BDC046008004400040044000400040AA
:1013800000C0034070020010F81FFF1F5002001041
:1013900060020010043189000B581B049B0D0120D2
:1013A0001380704708B500F00FF8014B186008BDB6
:1013B000800200100022034B18675A6701325A67F7
:1013C0007047C04600800440032100B51D4A83B029
:1013D000136F0B40022B20D0032B10D0012B06D013
:1013E0001948184B996F00F00EF903B000BD136C4B
:1013F0001940F5D0012923D1144B1868F1E7916801
:10140000126C134016D0012B1AD11F200F4B08402D
:101410001B68013001935843E3E71F21536ADA0543
:101420001940120F0A4B920001314900D05800F0C8
:10143000EAF8D6E71F20044B084001305843D0E7B4
:101440000020CEE700800440001BB700BC5600001F
:10145000C4560000802240230249885803438B5021
:101460007047C0460080044080212022054B585818
:1014700002435A50022259689143596059680A43FD
:101480005A60704700800440064B10B5041C186871
:1014900000F0B9F842081304801A1B0C80B22361D3
:1014A000606110BD800200103C23F0B5802783618D
:1014B0008A18243303600824F825FF05202691426A
:1014C00011D003681C42FCD043682B40102B1BD06A
:1014D00016D9182B01D0282B14D10B780131836039
:1014E00084619142EDD10021082203681A42FCD0A8
:1014F00080231022DB051A6008238361081CF0BDDD
:10150000082B01D00121EFE7BE610B780131836028
:101510008461E6E7F0B524235F4656464D464446CF
:10152000F0B403608023DB059C4604239946043312
:10153000984618338B4600250824F8269A46571EED
:10154000AA4213D0AF4220D003681C42FCD04368AB
:101550003340402B1DD00BD9502B2BD0582B1BD1F7
:10156000594683684B550135AA42EBD1002314E05C
:10157000082B01D0102B0FD16346514699615B4671
:101580005B5D013583608461DAE7634649469961B2
:10159000DAE743468361D3E7012380221021D20595
:1015A000116008228261181C3CBC90469946A246F4
:1015B000AB46F0BD594683684B55434601358361C0
:1015C000BEE7C0460023036030BF70478E2110B5D0
:1015D000054C89006358054A134002409343E822B2
:1015E00012021343635010BD00800440FF05000049
:1015F00008B500F042F808BD08B5FFF725F908BDA9
:1016000003000B4321D4002931D00122D207030962
:1016100001E0090112099942FBD9430801E04900A0
:1016200052089942FBD900E04908401A07D35241B9
:10163000FAD301461046704749084018F7D292186D
:10164000FAD34018014610467047CB0F00D04942EC
:10165000021000D54042534008B5FFF7D4FF0CBC40
:10166000521000D34042002A00D549421847F446A0
:10167000002000F001F8604770478446830708D1D6
:101680008B0706D1131F04D304C904C0043BFBD24B
:101690001A1D524205D0891A801A8B5C835401327C
:1016A000FBD1604670470000204669656C64206489
:1016B000657465637465642000000000001BB7005A
:1016C0000708090000000000C0270900900510006D
:1016D000C05C1500F0B31A00200B2000009F24000E
:1016E000E0322900C0C62D0050973100E067350078
:1016F0007038390000093D00401640008023430047
:10170000C030460005000000000000005500000049
:1017100000000000000000000000000000000000C9
:1017200000000000000000000000000000000000B9
:1017300000000000000000002B000000000000007E
:0C1740000000000000000000000000009D
:00000001FF
